:020000040000FA
:100000000A128A11FC2F00308A000408840A820731
:1000100000340134043407340E3402340534083417
:1000200000340334063409340F340A340B340C34EE
:040030000D34FF3458
:100EF800FF308312031386000F3083160313860016
:100F0800FF308312031388008316031388017F3090
:100F1800F0007008810508000A128A117C270A125D
:100F28008A110A128A11B4270A128A11F300730867
:100F3800F400740A0319A12FA22F952F7408F30047
:100F480003300310F30DFF3E031DA52F0310730D8F
:100F5800FF3A831203138800952F0A128A1100287A
:100F6800F101F201F20A7208F00003300310F00DEB
:100F7800FF3E031DBA2F0310700DFF3A83120313AF
:100F880086000618C82FC92FCA2FF12F0130F0008C
:100F98007008F1078618D12FD22FD32FF12F0130E7
:100FA800F0007008F1070619DA2FDB2FDC2FF12F7C
:100FB8000130F0007008F1078619E32FE42FE52FC0
:100FC800F12F0130F0007008F1070310F20D103016
:100FD8007202031CF02FF12FB72FFF308600710823
:100FE800013E84000A128A1103200A128A1108009D
:080FF80083010A128A11902FF7
:04400E00F1ECFFFFD3
:00000001FF
